:100000000A128A1112280800FE00030E831203133D
:10001000A9000408AA000A08AB007F08AC000A1275
:100020008A152E2A0A128A11152883174430FD00DA
:100030000730FE00C030FF00103084000A128A151D
:1000400037210A128A118313EF30FD000830FE00B9
:10005000FA30FF00EB3084000A128A1537210A12A9
:100060008A110A128A15FE200A128A11F8000A1251
:100070008A15FF200A128A11F9000A128A15002136
:100080000A128A11FA000A128A1501210A128A112B
:10009000FB000A128A1502210A128A11FC0083173A
:1000A00090308400C6300A128A150B210A128A1178
:1000B0004E30840056300A128A150B210A128A111A
:1000C0008313D9308400EB300A128A150B210A12EF
:1000D0008A115230840062300A128A150B21FD0108
:1000E00083010A128A117428003083160317E60070
:1000F0000030E5000030E4000030E3006E3083168D
:100100000313D500550883160317D2008312031773
:10011000CC01CD018316031386100611861102301F
:1001200083160317880089010A128A1557210A12BB
:100130008A11003083160317E6000030E500003016
:10014000E4000030E3000030E2000030E100003065
:10015000E0000030DF006208031D1B296108031D59
:100160001B2901306002031DB92890305F02031D76
:10017000B92803181B2901300A128A11FF260A1216
:100180008A11C1300A128A15BD230A128A1105305C
:1001900083160313D500550883120313AD006108BD
:1001A0000A128A1544210A128A11BC3E8400831760
:1001B000000883160317D700840A0008D800840AB1
:1001C0000008D900840A0008DA005A086602031DF4
:1001D000F32859086502031DF32858086402031D1B
:1001E000F328570863020318FD285A08E600590847
:1001F000E5005808E4005708E3000130DF0700304D
:1002000003180130E007003003180130E107003027
:1002100003180130E2076208031D1B296108031D52
:100220001B2901306002031D192990305F02031D54
:100230001929031CBB28660883160313A300831621
:100240000317650883160313A200831603176408B7
:1002500083160313A1008316031763088316031381
:10026000A0000030A7000030A6000030A500053037
:10027000A4000030AB000030AA000030A90000301C
:10028000A800E730D5005508AC00EB30D600560882
:10029000AD000A128A1555250A128A110310831619
:1002A0000317670D83120317C40083160317680D25
:1002B00083120317C50083160317690D83120317F2
:1002C000C600831603176A0D83120317C700003098
:1002D00083120313B0000030AF000030AE000A30CC
:1002E000AD00831603176E0883120313B400831640
:1002F00003176D0883120313B300831603176C08EA
:1003000083120313B200831603176B0883120313BF
:10031000B1000A128A1160270A128A11031083128F
:1003200003132D0D83120317C800831203132E0D20
:1003300083120317C900831203132F0D83120317AF
:10034000CA0083120313300D83120317CB00003051
:1003500083120313B0000030AF000030AE006430F1
:10036000AD00831203174B0883120313B4008312EA
:1003700003174A0883120313B300831203174908B3
:1003800083120313B2008312031748088312031366
:10039000B1000A128A1160270A128A11831203130C
:1003A0002D0883120317440783160313D50000306A
:1003B00003180130831203132E0783160313D7018A
:1003C0000318D70A83120317450783160313D600B1
:1003D0000318D70A831203132F0883160313570732
:1003E000D8010318D80A831203174607831603138C
:1003F000D7000318D80A8312031330088316031397
:10040000580783120317470783160313D8005808A9
:1004100083160317D6008316031357088316031792
:10042000D50083160313560883160317D4008316CA
:100430000313550883160317D300560855045404B4
:1004400053040319532A013083160313D5000030D7
:10045000D6000030D7000030D800550883160317A7
:10046000D302831603135608031C560F382A3B2A5F
:1004700083160317D402831603135708031C570F60
:10048000422A452A83160317D502831603135808F8
:10049000031C580F4C2A4F2A83160317D6028316C3
:1004A000031383160317003083120313BE000030BA
:1004B000BD000030BC001830BB0083120317470892
:1004C00083120313C2008312031746088312031317
:1004D000C10083120317450883120313C00083125F
:1004E0000317440883120313BF000A128A159F21C1
:1004F0000A128A11831203133E0883120317C700DE
:10050000831203133D0883120317C60083120313DB
:100510003C0883120317C500831203133B088312A0
:100520000317C400003083120313BE000030BD0067
:100530000030BC001830BB00831203174B08831235
:100540000313C200831203174A0883120313C10066
:1005500083120317490883120313C0008312031781
:10056000480883120313BF000A128A159F210A123A
:100570008A11831203133E0883120317CB008312E0
:1005800003133D0883120317CA00831203133C08A8
:1005900083120317C900831203133B088312031746
:1005A000C800003083120313B0000030AF000030E9
:1005B000AE006430AD00831203174B08831203139F
:1005C000B400831203174A0883120313B300831283
:1005D0000317490883120313B20083120317480854
:1005E00083120313B1000A128A1160270A128A11BA
:1005F000831203132D088312031744078316031372
:10060000D500003003180130831203132E07831620
:100610000313D7010318D70A83120317450783165C
:100620000313D6000318D70A831203132F08831667
:1006300003135707D8010318D80A83120317460774
:1006400083160313D7000318D80A83120313300844
:1006500083160313580783120317470783160313E0
:10066000D800580883120313BE00831603135708DB
:1006700083120313BD00831603135608831203135A
:10068000BC0083160313550883120313BB0000300C
:10069000C2000030C1000030C0001430BF000A1298
:1006A0008A159F210A128A11831203133E088316AA
:1006B0000317DE00831203133D0883160317DD00C2
:1006C000831203133C0883160317DC008312031301
:1006D0003B0883160317DB005E08031D9B2B5D0898
:1006E000031D9B2B0A305C02031D7A2B64305B02D6
:1006F000031D7A2B03189B2B8312031306158611F7
:10070000793083160313D500550883160317D200DA
:10071000831203174C034D040319992833308312B5
:100720000313AE009130AF000A128A157A210A1223
:100730008A110130E52B831603175E08031DAD2BCC
:100740005D08031DAD2B0F305C02031DAB2BB530D4
:100750005B02031DAB2B031CCD2B831203138614EA
:100760008611793083160313D500550883160317B5
:10077000D2000230831203174C064D040319992846
:10078000543083120313AE009130AF000A128A1561
:100790007A210A128A110230E52B83120313061103
:1007A000861086150330831203174C064D04031977
:1007B0009928753083120313AE009130AF000A12EE
:1007C0008A157A210A128A11033083120317CC008A
:1007D0000030CD00992883160313C400B83084007C
:1007E0003030A4000408A5000A30A60024088400C4
:1007F00083170008A700A40A25088400831327088C
:100800008000A50AA60BF62BA83084001030A400A7
:100810000408A5001030A6002408840083170008EF
:10082000A700A40A25088400831327088000A50ACE
:10083000A60B0C2C441E3E2CA31F362C2D300A1266
:100840008A11F4270A128A11831603132009D10092
:100850002109D2002209D3002309D400D10A0319A7
:10086000D20A0319D30A0319D40A462C2B300A12D0
:100870008A11F4270A128A11831603132308D4005D
:100880002208D3002108D2002008D1005408D0004B
:100890005308CF005208CE005108CD00D02E540886
:1008A000D0005308CF005208CE005108CD000030D0
:1008B00083120313B0000030AF002730AE001030B9
:1008C000AD0083160313500883120313B40083167C
:1008D00003134F0883120313B300831603134E0848
:1008E00083120313B200831603134D0883120313FC
:1008F000B1000A128A1160270A128A1183120313A7
:100900002E0883160313C300831203132D088316C6
:100910000313C2004208B83E8400831300080A1281
:100920008A11F4270A128A11003083120313CB00B4
:100930000030CA002730C9001030C80083160313E6
:10094000540883120313CF00831603135308831232
:100950000313CE0083160313520883120313CD0032
:1009600083160313510883120313CC000A128A154D
:10097000E0210A128A11831203134B088316031312
:10098000D000831203134A0883160313CF00831287
:100990000313490883160313CE0083120313480878
:1009A00083160313CD00003083120313B000003010
:1009B000AF000330AE00E830AD00831603135008DB
:1009C00083120313B400831603134F088312031317
:1009D000B300831603134E0883120313B200831669
:1009E00003134D0883120313B1000A128A11602702
:1009F0000A128A11831203132E0883160313C600EA
:100A0000831203132D0883160313C5004508B83E4F
:100A10008400831300080A128A11F4270A128A112B
:100A2000003083120313CB000030CA000330C9002A
:100A3000E830C80083160313540883120313CF0051
:100A400083160313530883120313CE008316031374
:100A5000520883120313CD00831603135108831227
:100A60000313CC000A128A15E0210A128A1183129C
:100A700003134B0883160313D000831203134A0891
:100A800083160313CF00831203134908831603133D
:100A9000CE0083120313480883160313CD000030E1
:100AA00083120313B0000030AF000030AE0064309A
:100AB000AD0083160313500883120313B40083168A
:100AC00003134F0883120313B300831603134E0856
:100AD00083120313B200831603134D08831203130A
:100AE000B1000A128A1160270A128A1183120313B5
:100AF0002E0883160313C800831203132D088316D0
:100B00000313C7004708B83E8400831300080A1285
:100B10008A11F4270A128A11003083120313CB00C2
:100B20000030CA000030C9006430C80083160313C7
:100B3000540883120313CF00831603135308831240
:100B40000313CE0083160313520883120313CD0040
:100B500083160313510883120313CC000A128A155B
:100B6000E0210A128A11831203134B088316031320
:100B7000D000831203134A0883160313CF00831295
:100B80000313490883160313CE0083120313480886
:100B900083160313CD00003083120313B00000301E
:100BA000AF000030AE000A30AD00831603135008CA
:100BB00083120313B400831603134F088312031325
:100BC000B300831603134E0883120313B200831677
:100BD00003134D0883120313B1000A128A11602710
:100BE0000A128A11831203132E0883160313CA00F4
:100BF000831203132D0883160313C9004908B83E56
:100C00008400831300080A128A11F4270A128A1139
:100C1000003083120313CB000030CA000030C9003B
:100C20000A30C80083160313540883120313CF003D
:100C300083160313530883120313CE008316031382
:100C4000520883120313CD00831603135108831235
:100C50000313CC000A128A15E0210A128A118312AA
:100C60000313490883160313CC00831203134808A7
:100C700083160313CB004B08B83E8400831300088F
:100C80000A128A11F4270800831603134D08A400E2
:100C90004E08A5004F08A6005008A7000C3003100E
:100CA000A70CA60CA50CA40CFF3E031D4F2E250877
:100CB000C6002408C5004508A83E84008313000828
:100CC0000A128A11F4270A128A11FF3083160313BD
:100CD0005105CD000F305205CE0000305305CF0036
:100CE00000305405D0004D08A4004E08A5004F0860
:100CF000A6005008A70008300310A70CA60CA50CEE
:100D0000A40CFF3E031D7C2E2508C8002408C70044
:100D10004708A83E8400831300080A128A11F427AA
:100D20000A128A11FF30831603135105CD000030DB
:100D30005205CE0000305305CF0000305405D000DE
:100D40004D08A4004E08A5004F08A6005008A700B3
:100D500004300310A70CA60CA50CA40CFF3E031D29
:100D6000A92E2508CA002408C9004908A83E840005
:100D7000831300080A128A11F4270A128A110F300D
:100D8000831603135105CB0000305205CC004B08ED
:100D9000A83E8400831300080A128A11F427080071
:100DA000831603134408013A0319082E033A031962
:100DB0008C2D013A0319102D073A0319942C013A8E
:100DC00003194F2C143A0319082E033A03198C2DDA
:100DD000013A0319102D073A0319942C013A03190B
:100DE0004F2C343A0319BF2E033A0319922E013ABD
:100DF0000319652E073A0319442EFE2E08008312AC
:100E00000313B2000E303202031808003208B1009A
:100E10003108E1000530B1003108AD0061080A1267
:100E20008A1544210A128A11043EBC3E8400FC301B
:100E300083178005053083120313B1003108AD001C
:100E400061080A128A1544210A128A11043EBC3E26
:100E5000840083170008F3390838800005308312B6
:100E60000313B1003108AD0061080A128A1544214C
:100E70000A128A11043EBC3E840083178016053096
:100E800083120313B1003108AD0061080A128A15FC
:100E900044210A128A11043EBC3E840083170013C9
:100EA000053083120313B1003108AD0061080A1246
:100EB0008A154421043EBC3E840083178013080039
:100EC000003083120313B9000030B8000030B700BF
:100ED0000030B60030082F042E042D040319B72F5C
:100EE000BA01BA0AB01B822F0130B5000310AD0D54
:100EF000AE0DAF0DB00DB50B762F0130B500350836
:100F0000BA07722F0130B5000310B60DB70DB80D3A
:100F1000B90DB50B842F30083402031D992F2F080B
:100F20003302031D992F2E083202031D992F2D081D
:100F30003102031CAA2F2D08B1022E08031C2E0F0C
:100F4000B2022F08031C2F0FB3023008031C300F0E
:100F5000B402361401300310B00CAF0CAE0CAD0C63
:100F6000FF3E031DAB2F0130BA02031D822F39084B
:100F7000B0003808AF003708AE003608AD000800F2
:100F80003034313432343334343435343634373425
:100F900038343934413442344334443445344634AB
:100FA0003034313432343334343435343634373405
:100FB000383439344134423443344434453446348B
:100FC00030343134323433343434353436343734E5
:100FD00038343934303431343234333434343534D1
:100FE000363437343834393483120313AD002D08C6
:100FF00099008316031398180800F92F08000800B9
:1011F40001340034C0340034013400348034003409
:101204007934831203139F1809296E30080079304A
:10121400080064008001840A0406031900340406EB
:101224000C29831203131010831603130C1083125A
:1012340003130C10E0010430F0007008DE00080015
:10124400F200F301721C2A297008F1007108F307F7
:101254000310F00D0310F20C7208031D2429730807
:1012640008007E088A007F08820033210A128A154A
:101274008000840A04087D0603190034FF0A031958
:10128400FE0A372983120313B000AF01301C4E2924
:101294002D08AE002E08AF070310AD0D0310B00CDF
:1012A4003008031D48292F08080020308316031333
:1012B40099008316031787118316031318118312D9
:1012C40003139817831603131812831203131816A3
:1012D4008316031398129816831203139812831615
:1012E40003130C128C16181383120313181308001B
:1012F400831203132F08FF002E0884000A168A1194
:1013040000200A128A15003A0319080083120313F5
:101314002F08FF002E0884000A168A1100200A12E2
:101324008A150A128A11F4270A128A1501308312C7
:101334000313AE070318AF0A7A290030831203138C
:10134400C7000030C6000030C5000030C4003B1C9C
:10135400BF293F08C407400803110318013E031DB9
:10136400C507410803110318013E031DC6074208BF
:1013740003110318013E031DC7070130C300031006
:10138400BF0DC00DC10DC20DC30BC1290130031027
:10139400BE0CBD0CBC0CBB0CFF3E031DC9293E0892
:1013A4003D043C043B04031DA9294708BE0046082C
:1013B400BD004508BC004408BB00080083120313A9
:1013C4004B084A04490448040319252AD101D10AC7
:1013D400CB1BFA290130D0000310C80DC90DCA0D6A
:1013E400CB0DD00BEE290130D0005008D107EA29EB
:1013F4004B084F02031D082A4A084E02031D082AFF
:1014040049084D02031D082A48084C02031C182AE7
:101414004808CC024908031C490FCD024A08031CA2
:101424004A0FCE024B08031C4B0FCF0201300310AE
:10143400CB0CCA0CC90CC80CFF3E031D192A013081
:10144400D102031DFA294F08CB004E08CA004D08EB
:10145400C9004C08C80008000B1A8B1C382A8B10D2
:101464000B120A128A11FF270A128A158312031318
:101474000C1F172B831603130C130530831203134D
:10148400A0002008F00061080A128A1522210A121D
:101494008A15043EBC3E840083170008FC390238D8
:1014A4008000831603139F1F932A1E0883120313BD
:1014B400A000A1012008F4002108F5001E0803394A
:1014C400A000A1012008F6002108F7007608A10079
:1014D400A00174082007A20075080318750A2107E3
:1014E400A3002208A4002308A500A601A701053033
:1014F400A8002808F00061080A128A1522210A129D
:101504008A15BC3E840083120313240883178000C9
:10151400840A25088000840A26088000840A270893
:101524000D2B831603131E08C03983120313A00066
:10153400A1012008F4002108F5001E08A000A10163
:101544002008F6002108F7007608A100A00174081D
:101554002007A20075080318750A2107A3002208B2
:10156400A4002308A500A601A7010530A8002808A7
:10157400F00061080A128A1522210A128A15BC3E5B
:10158400840083120313240883178000840A250827
:101594008000840A26088000840A27088000053019
:1015A400A0002008F00061080A128A1522210A12FC
:1015B4008A15BC3E84008317000883120313A1001C
:1015C400840A0008A200840A0008A300840A000810
:1015D400A40006300310A40CA30CA20CA10CFF3E23
:1015E400031DEC2A0530A5002508F00061080A1245
:1015F4008A1522210A128A15BC3E84008312031321
:10160400210883178000840A22088000840A2308A2
:101614008000840A2408800061080A128A110320C9
:101624000A128A15831203130C130C1CB12B0C1011
:101634005808A0005908A1005A08A2005B08A3009A
:1016440008300310A30CA20CA10CA00CFF3E031D38
:10165400232B20088F0058088E00013083160313B3
:10166400DD07003003180130DE07003003180130B5
:10167400DF07003003180130E0078316031733082F
:10168400831603136002031D5D2B831603173208B0
:10169400831603135F02031D5D2B831603173108A2
:1016A400831603135E02031D5D2B83160317300894
:1016B400831603135D02031CB12B0130E7070318E3
:1016C400E80A0030E807670883120313A0008316B2
:1016D4000313680883120313A100A201A301831654
:1016E40003172F08831203132302031D8F2B831662
:1016F40003172E08831203132202031D8F2B831654
:1017040003172D08831203132102031D8F2B831645
:1017140003172C08831203132002031CA72B0A129D
:101724008A1513210A128A1583160313E701E801A7
:101734000030E0000030DF000030DE000030DD006B
:101744000A128A11FE270A128A150030831603131F
:10175400E0000030DF000030DE000030DD008312E6
:101764002C08FF002B088A002A088400290E830015
:10177400FE0E7E0E090083160317D1000A128A1585
:1017840003210A128A1583160317C6004608CC00E3
:101794004D2D0E3083120313610603191E2D0E30D6
:1017A40061020318E52C610883160317C600023092
:1017B4000310C60DFF3E031DDA2B5108043E8400BE
:1017C4008317000CC700470C0339C8000530031009
:1017D400C80DFF3E031DE92B0310480D4604831278
:1017E40003139F00831603175108043E8400000D61
:1017F400000D0139C60004300310C60DFF3E031D61
:10180400FE2B5108043E8400000EC700C70C470C91
:101814000139C80005300310C80DFF3E031D0D2C0F
:101824005108043E8400000EC900490C0139CA0065
:1018340006300310CA0DFF3E031D1B2C03104A0D76
:1018440048044604831603139F00831203131F14D2
:101854000C13362C831603130C170B178B17442CFD
:10186400831603130C13442C831603175108043EE8
:10187400840000080339003A0319322C013A031991
:101884002C2C442C203083160317C600C60B482C7E
:101894000000831203139F14D82C831203139F1880
:1018A4004F2C0C13831603139F1F8F2C1E088316B3
:1018B4000317C600C7014608CD004708CE008312AF
:1018C40003131E08033983160317C600C70146080D
:1018D400CF004708D00008300310CF0DD00DFF3ED5
:1018E400031D6E2C4D084F04C6004E085004C7005B
:1018F4004608C8004708C900CA01CB015108840042
:10190400480883178000840A49088000840A4A082A
:101914008000840A4B088000080003131E08C039A5
:1019240083160317C600C7014608CD004708CE003A
:10193400831203131E0883160317C600C701460843
:10194400CF004708D00008300310CF0DD00DFF3E64
:10195400031DA62C4D084F04C6004E085004C700B2
:101964004608C8004708C900CA01CB0151088400D1
:10197400480883178000840A49088000840A4A08BA
:101984008000840A4B088000510884000630840AD1
:10199400840A840A0310800C8403800C8403800C62
:1019A4008403800CFF3E03190800C92C8316031717
:1019B4005108043E8400831700080339003A0319D0
:1019C4004F2C542D08008312031361088316031748
:1019D400C600C7014608B8004708B9001030831292
:1019E4000313AE009130AF000A128A157A210A124D
:1019F4008A15831603173B0883160313A300831663
:101A040003173A0883160313A20083160317390831
:101A140083160313A10083160317380883160313D0
:101A2400A00012300A128A11EB230A128A150D3013
:101A34000A128A11F4270800831603175108043E7A
:101A440084008317000E0139C60002300310C60D4E
:101A5400FF3E031D282D5108043E8400000CC700DE
:101A6400470C0339C80005300310C80DFF3E031DA1
:101A7400362D0310480D46043838831203139F0093
:101A84000800E33083120313AE009030AF000A1253
:101A94008A157A210800831603174C086E3A031935
:101AA400CB2B432D0800831603132708031DEC2FAB
:101AB4002608031DEC2F2508031DEC2F41302402BA
:101AC400031D642D0318EC2F003083120313B000A0
:101AD4000030AF000330AE00FF30AD0083160313B7
:101AE400270883120313BE008316031326088312E8
:101AF4000313BD0083160313250883120313BC00CC
:101B040083160313240883120313BB0083160313E1
:101B1400230883120313C2008316031322088312BB
:101B24000313C10083160313210883120313C00097
:101B340083160313200883120313BF000A128A15A5
:101B44009F210A128A15831203133E08B4003D082C
:101B5400B3003C08B2003B08B1000A128A116027A6
:101B64000A128A1583120313300883160313B5006F
:101B7400831203132F0883160313B4008312031371
:101B84002E0883160313B300831203132D08831640
:101B94000313B20032082807AE00003003180130E6
:101BA4003307B0010318B00A2907AF000318B00ABD
:101BB40034083007B1010318B10A2A07B00003182A
:101BC400B10A350831072B07B1002C0884002E0810
:101BD40083178000840A2F088000840A300880005C
:101BE400840A31088000003083120313CB000030D4
:101BF400CA000330C900FF30C80083160313270846
:101C040083120313BE0083160313260883120313DF
:101C1400BD0083160313250883120313BC00831627
:101C24000313240883120313BB008316031323082E
:101C340083120313C20083160313220883120313AF
:101C4400C10083160313210883120313C0008316F3
:101C54000313200883120313BF000A128A159F215D
:101C64000A128A15831203133E08CF003D08CE00E2
:101C74003C08CD003B08CC000A128A15E0210A1268
:101C84008A15831203134B0883160313C5008312AA
:101C940003134A0883160313C40083120313490869
:101CA40083160313C3008312031348088316031314
:101CB400C200003083120313B0000030AF000330C1
:101CC400AE00FF30AD0083160313450883120313DF
:101CD400BE0083160313440883120313BD00831646
:101CE4000313430883120313BC008316031342082F
:101CF40083120313BB000030C2000030C100003067
:101D0400C0000A30BF000A128A159F210A128A15E0
:101D1400831203133E08B4003D08B3003C08B2002C
:101D24003B08B1000A128A1160270A128A1583122D
:101D34000313300883160313BD00831203132F0803
:101D440083160313BC00831203132E088316031394
:101D5400BB00831203132D0883160313BA0000304B
:101D640083120313CB000030CA000330C900FF30D4
:101D7400C80083160313450883120313BE00831699
:101D84000313440883120313BD008316031343088B
:101D940083120313BC008316031342088312031334
:101DA400BB000030C2000030C1000030C0000A3067
:101DB400BF000A128A159F210A128A15831203137F
:101DC4003E08CF003D08CE003C08CD003B08CC00C7
:101DD4000A128A15E0210A128A15831203134B088A
:101DE40083160313B900831203134A0883160313DB
:101DF400B80083120313490883160313B700831230
:101E04000313480883160313B60000308312031328
:101E1400B0000030AF000330AE00FF30AD008316D9
:101E24000313390883120313BE00831603133808FF
:101E340083120313BD00831603133708831203139D
:101E4400BC0083160313360883120313BB0000304F
:101E5400C2000030C1000030C0000A30BF000A12C6
:101E64008A159F210A128A15831203133E08B400AF
:101E74003D08B3003C08B2003B08B1000A128A11C5
:101E840060270A128A15831203133008831603137A
:101E9400C100831203132F0883160313C000831297
:101EA40003132E0883160313BF00831203132D0894
:101EB40083160313BE00410883120313BE00831666
:101EC4000313400883120313BD00831603133F0852
:101ED40083120313BC00831603133E0883120313F7
:101EE400BB000030C2000030C1000030C0000A3026
:101EF400BF000A128A159F210A128A15831203133E
:101F04003B0883160313AE00831203133C088316A5
:101F14000313AF00831203133D0883160313B000A9
:101F2400831203133E0883160313B1003D08831282
:101F34000313BE00831603133C0883120313BD006E
:101F4400831603133B0883120313BC008316031385
:101F54003A0883120313BB000030C2000030C100F2
:101F64000030C0006430BF000A128A159F210A1293
:101F74008A15831203133B0883160313AE078312D7
:101F840003133C0803183C0FC82FCB2F83160313ED
:101F9400AF07831203133D0803183D0FD22FD52F2B
:101FA40083160313B007831203133E0803183E0A73
:101FB40083160313B1072D0884002E0883178000AD
:101FC400840A2F088000840A30088000840A3108BB
:101FD400800008002C08840083178001840A800193
:101FE400840A8001840A80012D0884008001840A07
:101FF4008001840A8001840A80010800FF1B0A28EA
:1020040083137F1883170008840A0319FF0A080042
:102014007F087F398A000408840A0319FF0A8200B2
:102024004F344534523452340034463445345234F7
:10203400523400344534523452343A3420347434F3
:102044006D3472343134203469347334203463345D
:102054006F3475346E3474346534723420346234BD
:1020640075347434203463346C346B3420347334F6
:102074006F347534723463346534203469347334A2
:1020840020346E346F3474342034653478347434CA
:10209400653472346E3461346C3420340D3400345D
:1020A4004534523452343A34203474346D347234F6
:1020B40031342034693473342034743469346D34E5
:1020C40065347234203462347534743420346334A7
:1020D4006C346B34203473346F3475347234633439
:1020E400653420346934733420346E346F3474347A
:1020F400203469346E347434653472346E3461342B
:102104006C3420340D3400344534523452343A346F
:102114002034743472347934203474346F34203479
:10212400643469347334613462346C346534203417
:1021340041344434433420347734683469346C345F
:1021440065342034413444344334203443346F34CC
:102154006E34763465347234743469346E3467346E
:1021640020340D3400344534523452343A3420345B
:1021740074346D347234313420346934733420341B
:1021840063346F3475346E3474346534723420348B
:1021940062347534743420344C34503420346F3405
:1021A40073346334203469347334203464346934CC
:1021B4007334613462346C346534643420340D34E3
:1021C40000344534523452343A3420347434723442
:1021D4007934203474346F34203473347434613477
:1021E40072347434203441344434433420347734E6
:1021F400683469346C3465342034413444344334B1
:10220400203443346F346E34763465347234743429
:1022140069346E34673420340D3400344534523418
:1022240052343A34203469346E34763461346C3444
:1022340069346434203441344434433420346334C2
:10224400683461346E346E3465346C3420347334E1
:1022540065346C3465346334743420343A34203453
:1022640000344534523452343A3420345234203415
:1022740052344D345334203443345534523452346C
:1022840045344E34543420343C3420344D344934B1
:102294004E3420344C3449344D344934543420348D
:1022A4000D3400344534523452343A3420345234E8
:1022B400203452344D34533420344334553452345E
:1022C400523445344E34543420343E3420344D3466
:1022D4004134583420344C3449344D344934543422
:1022E40020340D3400345234203452344D345334B9
:1022F4002034433455345234523445344E345434F7
:102304002034773469347434683469346E34203456
:102314004C3449344D344934543420340D3400346D
:102324000D344534523452343A342034463445342E
:10233400523452340D34203400340D344534523484
:1023440052343A3420344F344534523452340D34F8
:0423540020340034FD
:04400E00E4ECFFFFE0
:00000001FF
